{
  "contractName": "MyDefiProject",
  "abi": [
    {
      "inputs": [
        {
          "internalType": "address",
          "name": "daiAddress",
          "type": "address"
        }
      ],
      "stateMutability": "nonpayable",
      "type": "constructor"
    },
    {
      "inputs": [
        {
          "internalType": "address",
          "name": "recipient",
          "type": "address"
        },
        {
          "internalType": "uint256",
          "name": "amount",
          "type": "uint256"
        }
      ],
      "name": "foo",
      "outputs": [],
      "stateMutability": "nonpayable",
      "type": "function"
    }
  ],
  "bytecode": "0x608060405234801561001057600080fd5b506040516103d03803806103d0833981810160405281019061003291906100db565b806000806101000a81548173ffffffffffffffffffffffffffffffffffffffff021916908373ffffffffffffffffffffffffffffffffffffffff16021790555050610108565b600080fd5b600073ffffffffffffffffffffffffffffffffffffffff82169050919050565b60006100a88261007d565b9050919050565b6100b88161009d565b81146100c357600080fd5b50565b6000815190506100d5816100af565b92915050565b6000602082840312156100f1576100f0610078565b5b60006100ff848285016100c6565b91505092915050565b6102b9806101176000396000f3fe608060405234801561001057600080fd5b506004361061002b5760003560e01c8063bd0d639f14610030575b600080fd5b61004a60048036038101906100459190610197565b61004c565b005b60008054906101000a900473ffffffffffffffffffffffffffffffffffffffff1673ffffffffffffffffffffffffffffffffffffffff1663a9059cbb83836040518363ffffffff1660e01b81526004016100a79291906101f5565b602060405180830381600087803b1580156100c157600080fd5b505af11580156100d5573d6000803e3d6000fd5b505050506040513d601f19601f820116820180604052508101906100f99190610256565b505050565b600080fd5b600073ffffffffffffffffffffffffffffffffffffffff82169050919050565b600061012e82610103565b9050919050565b61013e81610123565b811461014957600080fd5b50565b60008135905061015b81610135565b92915050565b6000819050919050565b61017481610161565b811461017f57600080fd5b50565b6000813590506101918161016b565b92915050565b600080604083850312156101ae576101ad6100fe565b5b60006101bc8582860161014c565b92505060206101cd85828601610182565b9150509250929050565b6101e081610123565b82525050565b6101ef81610161565b82525050565b600060408201905061020a60008301856101d7565b61021760208301846101e6565b9392505050565b60008115159050919050565b6102338161021e565b811461023e57600080fd5b50565b6000815190506102508161022a565b92915050565b60006020828403121561026c5761026b6100fe565b5b600061027a84828501610241565b9150509291505056fea26469706673582212204d3eb3febb395c3aec60edf0afa7e05454bc9cd5fdcf3734659a464e7223992064736f6c63430008090033",
  "immutableReferences": {},
  "source": "// SPDX-License-Identifier: MIT\n\npragma solidity ^0.8.0;\n\nimport \"@openzeppelin/contracts/token/ERC20/IERC20.sol\";\n\ncontract MyDefiProject {\n    IERC20 dai;\n    \n    constructor(address daiAddress) {\n        dai = IERC20(daiAddress);\n    }\n    \n    function foo(address recipient, uint amount) external {\n        dai.transfer(recipient, amount);\n    }\n}",
  "sourcePath": "/Users/ndeto/defi/contracts/MyDefiProject.sol",
  "compiler": {
    "name": "solc",
    "version": "0.8.9+commit.e5eed63a.Emscripten.clang"
  },
  "schemaVersion": "3.4.3",
  "updatedAt": "2021-10-20T05:29:50.494Z",
  "networkType": "ethereum",
  "devdoc": {
    "kind": "dev",
    "methods": {},
    "version": 1
  },
  "userdoc": {
    "kind": "user",
    "methods": {},
    "version": 1
  }
}